{
  "_format": "hh-sol-artifact-1",
  "contractName": "Airdrop",
  "sourceName": "contracts/Airdrop.sol",
  "abi": [
    {
      "inputs": [],
      "stateMutability": "nonpayable",
      "type": "constructor"
    },
    {
      "anonymous": false,
      "inputs": [
        {
          "indexed": true,
          "internalType": "address",
          "name": "owner",
          "type": "address"
        },
        {
          "indexed": true,
          "internalType": "address",
          "name": "approved",
          "type": "address"
        },
        {
          "indexed": true,
          "internalType": "uint256",
          "name": "tokenId",
          "type": "uint256"
        }
      ],
      "name": "Approval",
      "type": "event"
    },
    {
      "anonymous": false,
      "inputs": [
        {
          "indexed": true,
          "internalType": "address",
          "name": "owner",
          "type": "address"
        },
        {
          "indexed": true,
          "internalType": "address",
          "name": "operator",
          "type": "address"
        },
        {
          "indexed": false,
          "internalType": "bool",
          "name": "approved",
          "type": "bool"
        }
      ],
      "name": "ApprovalForAll",
      "type": "event"
    },
    {
      "anonymous": false,
      "inputs": [
        {
          "indexed": true,
          "internalType": "address",
          "name": "previousOwner",
          "type": "address"
        },
        {
          "indexed": true,
          "internalType": "address",
          "name": "newOwner",
          "type": "address"
        }
      ],
      "name": "OwnershipTransferred",
      "type": "event"
    },
    {
      "anonymous": false,
      "inputs": [
        {
          "indexed": true,
          "internalType": "address",
          "name": "from",
          "type": "address"
        },
        {
          "indexed": true,
          "internalType": "address",
          "name": "to",
          "type": "address"
        },
        {
          "indexed": true,
          "internalType": "uint256",
          "name": "tokenId",
          "type": "uint256"
        }
      ],
      "name": "Transfer",
      "type": "event"
    },
    {
      "inputs": [
        {
          "internalType": "address",
          "name": "recipient",
          "type": "address"
        },
        {
          "internalType": "string",
          "name": "tokenURI",
          "type": "string"
        }
      ],
      "name": "_mintNFT",
      "outputs": [
        {
          "internalType": "uint256",
          "name": "",
          "type": "uint256"
        }
      ],
      "stateMutability": "nonpayable",
      "type": "function"
    },
    {
      "inputs": [
        {
          "internalType": "address[]",
          "name": "wAddresses",
          "type": "address[]"
        },
        {
          "internalType": "string",
          "name": "tokenURI",
          "type": "string"
        }
      ],
      "name": "airdropNfts",
      "outputs": [],
      "stateMutability": "nonpayable",
      "type": "function"
    },
    {
      "inputs": [
        {
          "internalType": "address",
          "name": "to",
          "type": "address"
        },
        {
          "internalType": "uint256",
          "name": "tokenId",
          "type": "uint256"
        }
      ],
      "name": "approve",
      "outputs": [],
      "stateMutability": "nonpayable",
      "type": "function"
    },
    {
      "inputs": [
        {
          "internalType": "address",
          "name": "owner",
          "type": "address"
        }
      ],
      "name": "balanceOf",
      "outputs": [
        {
          "internalType": "uint256",
          "name": "",
          "type": "uint256"
        }
      ],
      "stateMutability": "view",
      "type": "function"
    },
    {
      "inputs": [
        {
          "internalType": "uint256",
          "name": "tokenId",
          "type": "uint256"
        }
      ],
      "name": "getApproved",
      "outputs": [
        {
          "internalType": "address",
          "name": "",
          "type": "address"
        }
      ],
      "stateMutability": "view",
      "type": "function"
    },
    {
      "inputs": [
        {
          "internalType": "address",
          "name": "owner",
          "type": "address"
        },
        {
          "internalType": "address",
          "name": "operator",
          "type": "address"
        }
      ],
      "name": "isApprovedForAll",
      "outputs": [
        {
          "internalType": "bool",
          "name": "",
          "type": "bool"
        }
      ],
      "stateMutability": "view",
      "type": "function"
    },
    {
      "inputs": [],
      "name": "name",
      "outputs": [
        {
          "internalType": "string",
          "name": "",
          "type": "string"
        }
      ],
      "stateMutability": "view",
      "type": "function"
    },
    {
      "inputs": [],
      "name": "owner",
      "outputs": [
        {
          "internalType": "address",
          "name": "",
          "type": "address"
        }
      ],
      "stateMutability": "view",
      "type": "function"
    },
    {
      "inputs": [
        {
          "internalType": "uint256",
          "name": "tokenId",
          "type": "uint256"
        }
      ],
      "name": "ownerOf",
      "outputs": [
        {
          "internalType": "address",
          "name": "",
          "type": "address"
        }
      ],
      "stateMutability": "view",
      "type": "function"
    },
    {
      "inputs": [],
      "name": "renounceOwnership",
      "outputs": [],
      "stateMutability": "nonpayable",
      "type": "function"
    },
    {
      "inputs": [
        {
          "internalType": "address",
          "name": "from",
          "type": "address"
        },
        {
          "internalType": "address",
          "name": "to",
          "type": "address"
        },
        {
          "internalType": "uint256",
          "name": "tokenId",
          "type": "uint256"
        }
      ],
      "name": "safeTransferFrom",
      "outputs": [],
      "stateMutability": "nonpayable",
      "type": "function"
    },
    {
      "inputs": [
        {
          "internalType": "address",
          "name": "from",
          "type": "address"
        },
        {
          "internalType": "address",
          "name": "to",
          "type": "address"
        },
        {
          "internalType": "uint256",
          "name": "tokenId",
          "type": "uint256"
        },
        {
          "internalType": "bytes",
          "name": "data",
          "type": "bytes"
        }
      ],
      "name": "safeTransferFrom",
      "outputs": [],
      "stateMutability": "nonpayable",
      "type": "function"
    },
    {
      "inputs": [
        {
          "internalType": "address",
          "name": "operator",
          "type": "address"
        },
        {
          "internalType": "bool",
          "name": "approved",
          "type": "bool"
        }
      ],
      "name": "setApprovalForAll",
      "outputs": [],
      "stateMutability": "nonpayable",
      "type": "function"
    },
    {
      "inputs": [
        {
          "internalType": "bytes4",
          "name": "interfaceId",
          "type": "bytes4"
        }
      ],
      "name": "supportsInterface",
      "outputs": [
        {
          "internalType": "bool",
          "name": "",
          "type": "bool"
        }
      ],
      "stateMutability": "view",
      "type": "function"
    },
    {
      "inputs": [],
      "name": "symbol",
      "outputs": [
        {
          "internalType": "string",
          "name": "",
          "type": "string"
        }
      ],
      "stateMutability": "view",
      "type": "function"
    },
    {
      "inputs": [
        {
          "internalType": "uint256",
          "name": "tokenId",
          "type": "uint256"
        }
      ],
      "name": "tokenURI",
      "outputs": [
        {
          "internalType": "string",
          "name": "",
          "type": "string"
        }
      ],
      "stateMutability": "view",
      "type": "function"
    },
    {
      "inputs": [
        {
          "internalType": "address",
          "name": "from",
          "type": "address"
        },
        {
          "internalType": "address",
          "name": "to",
          "type": "address"
        },
        {
          "internalType": "uint256",
          "name": "tokenId",
          "type": "uint256"
        }
      ],
      "name": "transferFrom",
      "outputs": [],
      "stateMutability": "nonpayable",
      "type": "function"
    },
    {
      "inputs": [
        {
          "internalType": "address",
          "name": "newOwner",
          "type": "address"
        }
      ],
      "name": "transferOwnership",
      "outputs": [],
      "stateMutability": "nonpayable",
      "type": "function"
    }
  ],
  "bytecode": "0x60806040523480156200001157600080fd5b506040518060400160405280600e81526020017f3343726561746f722042616467650000000000000000000000000000000000008152506040518060400160405280600381526020017f3343420000000000000000000000000000000000000000000000000000000000815250816000908051906020019062000096929190620002bd565b508060019080519060200190620000af929190620002bd565b505050620000d2620000c66200012360201b60201c565b6200012b60201b60201c565b6200011d6040518060400160405280601b81526020017f436f6e747261637420686173206265656e206465706c6f796564210000000000815250620001f160201b62000c891760201c565b6200049a565b600033905090565b6000600760009054906101000a900473ffffffffffffffffffffffffffffffffffffffff16905081600760006101000a81548173ffffffffffffffffffffffffffffffffffffffff021916908373ffffffffffffffffffffffffffffffffffffffff1602179055508173ffffffffffffffffffffffffffffffffffffffff168173ffffffffffffffffffffffffffffffffffffffff167f8be0079c531659141344cd1fd0a4f28419497f9722a3daafe3b4186f6b6457e060405160405180910390a35050565b6200029181604051602401620002089190620003ae565b6040516020818303038152906040527f41304fac000000000000000000000000000000000000000000000000000000007bffffffffffffffffffffffffffffffffffffffffffffffffffffffff19166020820180517bffffffffffffffffffffffffffffffffffffffffffffffffffffffff83818316178352505050506200029460201b60201c565b50565b60008151905060006a636f6e736f6c652e6c6f679050602083016000808483855afa5050505050565b828054620002cb9062000424565b90600052602060002090601f016020900481019282620002ef57600085556200033b565b82601f106200030a57805160ff19168380011785556200033b565b828001600101855582156200033b579182015b828111156200033a5782518255916020019190600101906200031d565b5b5090506200034a91906200034e565b5090565b5b80821115620003695760008160009055506001016200034f565b5090565b60006200037a82620003d2565b620003868185620003dd565b935062000398818560208601620003ee565b620003a38162000489565b840191505092915050565b60006020820190508181036000830152620003ca81846200036d565b905092915050565b600081519050919050565b600082825260208201905092915050565b60005b838110156200040e578082015181840152602081019050620003f1565b838111156200041e576000848401525b50505050565b600060028204905060018216806200043d57607f821691505b602082108114156200045457620004536200045a565b5b50919050565b7f4e487b7100000000000000000000000000000000000000000000000000000000600052602260045260246000fd5b6000601f19601f8301169050919050565b612e0c80620004aa6000396000f3fe608060405234801561001057600080fd5b50600436106101165760003560e01c8063715018a6116100a2578063a22cb46511610071578063a22cb465146102df578063b88d4fde146102fb578063c87b56dd14610317578063e985e9c514610347578063f2fde38b1461037757610116565b8063715018a61461027d57806373d04299146102875780638da5cb5b146102a357806395d89b41146102c157610116565b806323b872dd116100e957806323b872dd146101b557806342842e0e146101d15780636352211e146101ed57806368f81c311461021d57806370a082311461024d57610116565b806301ffc9a71461011b57806306fdde031461014b578063081812fc14610169578063095ea7b314610199575b600080fd5b61013560048036038101906101309190612029565b610393565b60405161014291906123e9565b60405180910390f35b610153610475565b6040516101609190612404565b60405180910390f35b610183600480360381019061017e919061207b565b610507565b6040516101909190612382565b60405180910390f35b6101b360048036038101906101ae9190611f7d565b61054d565b005b6101cf60048036038101906101ca9190611e23565b610665565b005b6101eb60048036038101906101e69190611e23565b6106c5565b005b6102076004803603810190610202919061207b565b6106e5565b6040516102149190612382565b60405180910390f35b61023760048036038101906102329190611f29565b610797565b60405161024491906125e6565b60405180910390f35b61026760048036038101906102629190611dbe565b6107d7565b60405161027491906125e6565b60405180910390f35b61028561088f565b005b6102a1600480360381019061029c9190611fb9565b6108a3565b005b6102ab61092a565b6040516102b89190612382565b60405180910390f35b6102c9610954565b6040516102d69190612404565b60405180910390f35b6102f960048036038101906102f49190611eed565b6109e6565b005b61031560048036038101906103109190611e72565b6109fc565b005b610331600480360381019061032c919061207b565b610a5e565b60405161033e9190612404565b60405180910390f35b610361600480360381019061035c9190611de7565b610b71565b60405161036e91906123e9565b60405180910390f35b610391600480360381019061038c9190611dbe565b610c05565b005b60007f80ac58cd000000000000000000000000000000000000000000000000000000007bffffffffffffffffffffffffffffffffffffffffffffffffffffffff1916827bffffffffffffffffffffffffffffffffffffffffffffffffffffffff1916148061045e57507f5b5e139f000000000000000000000000000000000000000000000000000000007bffffffffffffffffffffffffffffffffffffffffffffffffffffffff1916827bffffffffffffffffffffffffffffffffffffffffffffffffffffffff1916145b8061046e575061046d82610d22565b5b9050919050565b6060600080546104849061283c565b80601f01602080910402602001604051908101604052809291908181526020018280546104b09061283c565b80156104fd5780601f106104d2576101008083540402835291602001916104fd565b820191906000526020600020905b8154815290600101906020018083116104e057829003601f168201915b5050505050905090565b600061051282610d8c565b6004600083815260200190815260200160002060009054906101000a900473ffffffffffffffffffffffffffffffffffffffff169050919050565b6000610558826106e5565b90508073ffffffffffffffffffffffffffffffffffffffff168373ffffffffffffffffffffffffffffffffffffffff1614156105c9576040517f08c379a00000000000000000000000000000000000000000000000000000000081526004016105c0906125a6565b60405180910390fd5b8073ffffffffffffffffffffffffffffffffffffffff166105e8610dd7565b73ffffffffffffffffffffffffffffffffffffffff161480610617575061061681610611610dd7565b610b71565b5b610656576040517f08c379a000000000000000000000000000000000000000000000000000000000815260040161064d90612526565b60405180910390fd5b6106608383610ddf565b505050565b610676610670610dd7565b82610e98565b6106b5576040517f08c379a00000000000000000000000000000000000000000000000000000000081526004016106ac906125c6565b60405180910390fd5b6106c0838383610f2d565b505050565b6106e0838383604051806020016040528060008152506109fc565b505050565b6000806002600084815260200190815260200160002060009054906101000a900473ffffffffffffffffffffffffffffffffffffffff169050600073ffffffffffffffffffffffffffffffffffffffff168173ffffffffffffffffffffffffffffffffffffffff16141561078e576040517f08c379a000000000000000000000000000000000000000000000000000000000815260040161078590612586565b60405180910390fd5b80915050919050565b60006107a1611194565b6107ab6008611212565b60006107b76008611228565b90506107c38482611236565b6107cd8184611410565b8091505092915050565b60008073ffffffffffffffffffffffffffffffffffffffff168273ffffffffffffffffffffffffffffffffffffffff161415610848576040517f08c379a000000000000000000000000000000000000000000000000000000000815260040161083f906124e6565b60405180910390fd5b600360008373ffffffffffffffffffffffffffffffffffffffff1673ffffffffffffffffffffffffffffffffffffffff168152602001908152602001600020549050919050565b610897611194565b6108a16000611484565b565b6108ab611194565b60005b83839050811015610924576109108484838181106108f5577f4e487b7100000000000000000000000000000000000000000000000000000000600052603260045260246000fd5b905060200201602081019061090a9190611dbe565b83610797565b50808061091c9061289f565b9150506108ae565b50505050565b6000600760009054906101000a900473ffffffffffffffffffffffffffffffffffffffff16905090565b6060600180546109639061283c565b80601f016020809104026020016040519081016040528092919081815260200182805461098f9061283c565b80156109dc5780601f106109b1576101008083540402835291602001916109dc565b820191906000526020600020905b8154815290600101906020018083116109bf57829003601f168201915b5050505050905090565b6109f86109f1610dd7565b838361154a565b5050565b610a0d610a07610dd7565b83610e98565b610a4c576040517f08c379a0000000000000000000000000000000000000000000000000000000008152600401610a43906125c6565b60405180910390fd5b610a58848484846116b7565b50505050565b6060610a6982610d8c565b6000600660008481526020019081526020016000208054610a899061283c565b80601f0160208091040260200160405190810160405280929190818152602001828054610ab59061283c565b8015610b025780601f10610ad757610100808354040283529160200191610b02565b820191906000526020600020905b815481529060010190602001808311610ae557829003601f168201915b505050505090506000610b13611713565b9050600081511415610b29578192505050610b6c565b600082511115610b5e578082604051602001610b4692919061235e565b60405160208183030381529060405292505050610b6c565b610b678461172a565b925050505b919050565b6000600560008473ffffffffffffffffffffffffffffffffffffffff1673ffffffffffffffffffffffffffffffffffffffff16815260200190815260200160002060008373ffffffffffffffffffffffffffffffffffffffff1673ffffffffffffffffffffffffffffffffffffffff16815260200190815260200160002060009054906101000a900460ff16905092915050565b610c0d611194565b600073ffffffffffffffffffffffffffffffffffffffff168173ffffffffffffffffffffffffffffffffffffffff161415610c7d576040517f08c379a0000000000000000000000000000000000000000000000000000000008152600401610c7490612446565b60405180910390fd5b610c8681611484565b50565b610d1f81604051602401610c9d9190612404565b6040516020818303038152906040527f41304fac000000000000000000000000000000000000000000000000000000007bffffffffffffffffffffffffffffffffffffffffffffffffffffffff19166020820180517bffffffffffffffffffffffffffffffffffffffffffffffffffffffff8381831617835250505050611792565b50565b60007f01ffc9a7000000000000000000000000000000000000000000000000000000007bffffffffffffffffffffffffffffffffffffffffffffffffffffffff1916827bffffffffffffffffffffffffffffffffffffffffffffffffffffffff1916149050919050565b610d95816117bb565b610dd4576040517f08c379a0000000000000000000000000000000000000000000000000000000008152600401610dcb90612586565b60405180910390fd5b50565b600033905090565b816004600083815260200190815260200160002060006101000a81548173ffffffffffffffffffffffffffffffffffffffff021916908373ffffffffffffffffffffffffffffffffffffffff160217905550808273ffffffffffffffffffffffffffffffffffffffff16610e52836106e5565b73ffffffffffffffffffffffffffffffffffffffff167f8c5be1e5ebec7d5bd14f71427d1e84f3dd0314c0f7b2291e5b200ac8c7c3b92560405160405180910390a45050565b600080610ea4836106e5565b90508073ffffffffffffffffffffffffffffffffffffffff168473ffffffffffffffffffffffffffffffffffffffff161480610ee65750610ee58185610b71565b5b80610f2457508373ffffffffffffffffffffffffffffffffffffffff16610f0c84610507565b73ffffffffffffffffffffffffffffffffffffffff16145b91505092915050565b8273ffffffffffffffffffffffffffffffffffffffff16610f4d826106e5565b73ffffffffffffffffffffffffffffffffffffffff1614610fa3576040517f08c379a0000000000000000000000000000000000000000000000000000000008152600401610f9a90612466565b60405180910390fd5b600073ffffffffffffffffffffffffffffffffffffffff168273ffffffffffffffffffffffffffffffffffffffff161415611013576040517f08c379a000000000000000000000000000000000000000000000000000000000815260040161100a906124a6565b60405180910390fd5b61101e838383611827565b611029600082610ddf565b6001600360008573ffffffffffffffffffffffffffffffffffffffff1673ffffffffffffffffffffffffffffffffffffffff16815260200190815260200160002060008282546110799190612752565b925050819055506001600360008473ffffffffffffffffffffffffffffffffffffffff1673ffffffffffffffffffffffffffffffffffffffff16815260200190815260200160002060008282546110d091906126cb565b92505081905550816002600083815260200190815260200160002060006101000a81548173ffffffffffffffffffffffffffffffffffffffff021916908373ffffffffffffffffffffffffffffffffffffffff160217905550808273ffffffffffffffffffffffffffffffffffffffff168473ffffffffffffffffffffffffffffffffffffffff167fddf252ad1be2c89b69c2b068fc378daa952ba7f163c4a11628f55a4df523b3ef60405160405180910390a461118f83838361182c565b505050565b61119c610dd7565b73ffffffffffffffffffffffffffffffffffffffff166111ba61092a565b73ffffffffffffffffffffffffffffffffffffffff1614611210576040517f08c379a000000000000000000000000000000000000000000000000000000000815260040161120790612566565b60405180910390fd5b565b6001816000016000828254019250508190555050565b600081600001549050919050565b600073ffffffffffffffffffffffffffffffffffffffff168273ffffffffffffffffffffffffffffffffffffffff1614156112a6576040517f08c379a000000000000000000000000000000000000000000000000000000000815260040161129d90612546565b60405180910390fd5b6112af816117bb565b156112ef576040517f08c379a00000000000000000000000000000000000000000000000000000000081526004016112e690612486565b60405180910390fd5b6112fb60008383611827565b6001600360008473ffffffffffffffffffffffffffffffffffffffff1673ffffffffffffffffffffffffffffffffffffffff168152602001908152602001600020600082825461134b91906126cb565b92505081905550816002600083815260200190815260200160002060006101000a81548173ffffffffffffffffffffffffffffffffffffffff021916908373ffffffffffffffffffffffffffffffffffffffff160217905550808273ffffffffffffffffffffffffffffffffffffffff16600073ffffffffffffffffffffffffffffffffffffffff167fddf252ad1be2c89b69c2b068fc378daa952ba7f163c4a11628f55a4df523b3ef60405160405180910390a461140c6000838361182c565b5050565b611419826117bb565b611458576040517f08c379a000000000000000000000000000000000000000000000000000000000815260040161144f90612506565b60405180910390fd5b8060066000848152602001908152602001600020908051906020019061147f929190611b98565b505050565b6000600760009054906101000a900473ffffffffffffffffffffffffffffffffffffffff16905081600760006101000a81548173ffffffffffffffffffffffffffffffffffffffff021916908373ffffffffffffffffffffffffffffffffffffffff1602179055508173ffffffffffffffffffffffffffffffffffffffff168173ffffffffffffffffffffffffffffffffffffffff167f8be0079c531659141344cd1fd0a4f28419497f9722a3daafe3b4186f6b6457e060405160405180910390a35050565b8173ffffffffffffffffffffffffffffffffffffffff168373ffffffffffffffffffffffffffffffffffffffff1614156115b9576040517f08c379a00000000000000000000000000000000000000000000000000000000081526004016115b0906124c6565b60405180910390fd5b80600560008573ffffffffffffffffffffffffffffffffffffffff1673ffffffffffffffffffffffffffffffffffffffff16815260200190815260200160002060008473ffffffffffffffffffffffffffffffffffffffff1673ffffffffffffffffffffffffffffffffffffffff16815260200190815260200160002060006101000a81548160ff0219169083151502179055508173ffffffffffffffffffffffffffffffffffffffff168373ffffffffffffffffffffffffffffffffffffffff167f17307eab39ab6107e8899845ad3d59bd9653f200f220920489ca2b5937696c31836040516116aa91906123e9565b60405180910390a3505050565b6116c2848484610f2d565b6116ce84848484611831565b61170d576040517f08c379a000000000000000000000000000000000000000000000000000000000815260040161170490612426565b60405180910390fd5b50505050565b606060405180602001604052806000815250905090565b606061173582610d8c565b600061173f611713565b9050600081511161175f576040518060200160405280600081525061178a565b80611769846119c8565b60405160200161177a92919061235e565b6040516020818303038152906040525b915050919050565b60008151905060006a636f6e736f6c652e6c6f679050602083016000808483855afa5050505050565b60008073ffffffffffffffffffffffffffffffffffffffff166002600084815260200190815260200160002060009054906101000a900473ffffffffffffffffffffffffffffffffffffffff1673ffffffffffffffffffffffffffffffffffffffff1614159050919050565b505050565b505050565b60006118528473ffffffffffffffffffffffffffffffffffffffff16611b75565b156119bb578373ffffffffffffffffffffffffffffffffffffffff1663150b7a0261187b610dd7565b8786866040518563ffffffff1660e01b815260040161189d949392919061239d565b602060405180830381600087803b1580156118b757600080fd5b505af19250505080156118e857506040513d601f19601f820116820180604052508101906118e59190612052565b60015b61196b573d8060008114611918576040519150601f19603f3d011682016040523d82523d6000602084013e61191d565b606091505b50600081511415611963576040517f08c379a000000000000000000000000000000000000000000000000000000000815260040161195a90612426565b60405180910390fd5b805181602001fd5b63150b7a0260e01b7bffffffffffffffffffffffffffffffffffffffffffffffffffffffff1916817bffffffffffffffffffffffffffffffffffffffffffffffffffffffff1916149150506119c0565b600190505b949350505050565b60606000821415611a10576040518060400160405280600181526020017f30000000000000000000000000000000000000000000000000000000000000008152509050611b70565b600082905060005b60008214611a42578080611a2b9061289f565b915050600a82611a3b9190612721565b9150611a18565b60008167ffffffffffffffff811115611a84577f4e487b7100000000000000000000000000000000000000000000000000000000600052604160045260246000fd5b6040519080825280601f01601f191660200182016040528015611ab65781602001600182028036833780820191505090505b5090505b60008514611b6957600182611acf9190612752565b9150600a85611ade91906128e8565b6030611aea91906126cb565b60f81b818381518110611b26577f4e487b7100000000000000000000000000000000000000000000000000000000600052603260045260246000fd5b60200101907effffffffffffffffffffffffffffffffffffffffffffffffffffffffffffff1916908160001a905350600a85611b629190612721565b9450611aba565b8093505050505b919050565b6000808273ffffffffffffffffffffffffffffffffffffffff163b119050919050565b828054611ba49061283c565b90600052602060002090601f016020900481019282611bc65760008555611c0d565b82601f10611bdf57805160ff1916838001178555611c0d565b82800160010185558215611c0d579182015b82811115611c0c578251825591602001919060010190611bf1565b5b509050611c1a9190611c1e565b5090565b5b80821115611c37576000816000905550600101611c1f565b5090565b6000611c4e611c4984612626565b612601565b905082815260208101848484011115611c6657600080fd5b611c718482856127fa565b509392505050565b6000611c8c611c8784612657565b612601565b905082815260208101848484011115611ca457600080fd5b611caf8482856127fa565b509392505050565b600081359050611cc681612d7a565b92915050565b60008083601f840112611cde57600080fd5b8235905067ffffffffffffffff811115611cf757600080fd5b602083019150836020820283011115611d0f57600080fd5b9250929050565b600081359050611d2581612d91565b92915050565b600081359050611d3a81612da8565b92915050565b600081519050611d4f81612da8565b92915050565b600082601f830112611d6657600080fd5b8135611d76848260208601611c3b565b91505092915050565b600082601f830112611d9057600080fd5b8135611da0848260208601611c79565b91505092915050565b600081359050611db881612dbf565b92915050565b600060208284031215611dd057600080fd5b6000611dde84828501611cb7565b91505092915050565b60008060408385031215611dfa57600080fd5b6000611e0885828601611cb7565b9250506020611e1985828601611cb7565b9150509250929050565b600080600060608486031215611e3857600080fd5b6000611e4686828701611cb7565b9350506020611e5786828701611cb7565b9250506040611e6886828701611da9565b9150509250925092565b60008060008060808587031215611e8857600080fd5b6000611e9687828801611cb7565b9450506020611ea787828801611cb7565b9350506040611eb887828801611da9565b925050606085013567ffffffffffffffff811115611ed557600080fd5b611ee187828801611d55565b91505092959194509250565b60008060408385031215611f0057600080fd5b6000611f0e85828601611cb7565b9250506020611f1f85828601611d16565b9150509250929050565b60008060408385031215611f3c57600080fd5b6000611f4a85828601611cb7565b925050602083013567ffffffffffffffff811115611f6757600080fd5b611f7385828601611d7f565b9150509250929050565b60008060408385031215611f9057600080fd5b6000611f9e85828601611cb7565b9250506020611faf85828601611da9565b9150509250929050565b600080600060408486031215611fce57600080fd5b600084013567ffffffffffffffff811115611fe857600080fd5b611ff486828701611ccc565b9350935050602084013567ffffffffffffffff81111561201357600080fd5b61201f86828701611d7f565b9150509250925092565b60006020828403121561203b57600080fd5b600061204984828501611d2b565b91505092915050565b60006020828403121561206457600080fd5b600061207284828501611d40565b91505092915050565b60006020828403121561208d57600080fd5b600061209b84828501611da9565b91505092915050565b6120ad81612786565b82525050565b6120bc81612798565b82525050565b60006120cd82612688565b6120d7818561269e565b93506120e7818560208601612809565b6120f0816129d5565b840191505092915050565b600061210682612693565b61211081856126af565b9350612120818560208601612809565b612129816129d5565b840191505092915050565b600061213f82612693565b61214981856126c0565b9350612159818560208601612809565b80840191505092915050565b60006121726032836126af565b915061217d826129e6565b604082019050919050565b60006121956026836126af565b91506121a082612a35565b604082019050919050565b60006121b86025836126af565b91506121c382612a84565b604082019050919050565b60006121db601c836126af565b91506121e682612ad3565b602082019050919050565b60006121fe6024836126af565b915061220982612afc565b604082019050919050565b60006122216019836126af565b915061222c82612b4b565b602082019050919050565b60006122446029836126af565b915061224f82612b74565b604082019050919050565b6000612267602e836126af565b915061227282612bc3565b604082019050919050565b600061228a603e836126af565b915061229582612c12565b604082019050919050565b60006122ad6020836126af565b91506122b882612c61565b602082019050919050565b60006122d06020836126af565b91506122db82612c8a565b602082019050919050565b60006122f36018836126af565b91506122fe82612cb3565b602082019050919050565b60006123166021836126af565b915061232182612cdc565b604082019050919050565b6000612339602e836126af565b915061234482612d2b565b604082019050919050565b612358816127f0565b82525050565b600061236a8285612134565b91506123768284612134565b91508190509392505050565b600060208201905061239760008301846120a4565b92915050565b60006080820190506123b260008301876120a4565b6123bf60208301866120a4565b6123cc604083018561234f565b81810360608301526123de81846120c2565b905095945050505050565b60006020820190506123fe60008301846120b3565b92915050565b6000602082019050818103600083015261241e81846120fb565b905092915050565b6000602082019050818103600083015261243f81612165565b9050919050565b6000602082019050818103600083015261245f81612188565b9050919050565b6000602082019050818103600083015261247f816121ab565b9050919050565b6000602082019050818103600083015261249f816121ce565b9050919050565b600060208201905081810360008301526124bf816121f1565b9050919050565b600060208201905081810360008301526124df81612214565b9050919050565b600060208201905081810360008301526124ff81612237565b9050919050565b6000602082019050818103600083015261251f8161225a565b9050919050565b6000602082019050818103600083015261253f8161227d565b9050919050565b6000602082019050818103600083015261255f816122a0565b9050919050565b6000602082019050818103600083015261257f816122c3565b9050919050565b6000602082019050818103600083015261259f816122e6565b9050919050565b600060208201905081810360008301526125bf81612309565b9050919050565b600060208201905081810360008301526125df8161232c565b9050919050565b60006020820190506125fb600083018461234f565b92915050565b600061260b61261c565b9050612617828261286e565b919050565b6000604051905090565b600067ffffffffffffffff821115612641576126406129a6565b5b61264a826129d5565b9050602081019050919050565b600067ffffffffffffffff821115612672576126716129a6565b5b61267b826129d5565b9050602081019050919050565b600081519050919050565b600081519050919050565b600082825260208201905092915050565b600082825260208201905092915050565b600081905092915050565b60006126d6826127f0565b91506126e1836127f0565b9250827fffffffffffffffffffffffffffffffffffffffffffffffffffffffffffffffff0382111561271657612715612919565b5b828201905092915050565b600061272c826127f0565b9150612737836127f0565b92508261274757612746612948565b5b828204905092915050565b600061275d826127f0565b9150612768836127f0565b92508282101561277b5761277a612919565b5b828203905092915050565b6000612791826127d0565b9050919050565b60008115159050919050565b60007fffffffff0000000000000000000000000000000000000000000000000000000082169050919050565b600073ffffffffffffffffffffffffffffffffffffffff82169050919050565b6000819050919050565b82818337600083830152505050565b60005b8381101561282757808201518184015260208101905061280c565b83811115612836576000848401525b50505050565b6000600282049050600182168061285457607f821691505b6020821081141561286857612867612977565b5b50919050565b612877826129d5565b810181811067ffffffffffffffff82111715612896576128956129a6565b5b80604052505050565b60006128aa826127f0565b91507fffffffffffffffffffffffffffffffffffffffffffffffffffffffffffffffff8214156128dd576128dc612919565b5b600182019050919050565b60006128f3826127f0565b91506128fe836127f0565b92508261290e5761290d612948565b5b828206905092915050565b7f4e487b7100000000000000000000000000000000000000000000000000000000600052601160045260246000fd5b7f4e487b7100000000000000000000000000000000000000000000000000000000600052601260045260246000fd5b7f4e487b7100000000000000000000000000000000000000000000000000000000600052602260045260246000fd5b7f4e487b7100000000000000000000000000000000000000000000000000000000600052604160045260246000fd5b6000601f19601f8301169050919050565b7f4552433732313a207472616e7366657220746f206e6f6e20455243373231526560008201527f63656976657220696d706c656d656e7465720000000000000000000000000000602082015250565b7f4f776e61626c653a206e6577206f776e657220697320746865207a65726f206160008201527f6464726573730000000000000000000000000000000000000000000000000000602082015250565b7f4552433732313a207472616e736665722066726f6d20696e636f72726563742060008201527f6f776e6572000000000000000000000000000000000000000000000000000000602082015250565b7f4552433732313a20746f6b656e20616c7265616479206d696e74656400000000600082015250565b7f4552433732313a207472616e7366657220746f20746865207a65726f2061646460008201527f7265737300000000000000000000000000000000000000000000000000000000602082015250565b7f4552433732313a20617070726f766520746f2063616c6c657200000000000000600082015250565b7f4552433732313a2061646472657373207a65726f206973206e6f74206120766160008201527f6c6964206f776e65720000000000000000000000000000000000000000000000602082015250565b7f45524337323155524953746f726167653a2055524920736574206f66206e6f6e60008201527f6578697374656e7420746f6b656e000000000000000000000000000000000000602082015250565b7f4552433732313a20617070726f76652063616c6c6572206973206e6f7420746f60008201527f6b656e206f776e6572206e6f7220617070726f76656420666f7220616c6c0000602082015250565b7f4552433732313a206d696e7420746f20746865207a65726f2061646472657373600082015250565b7f4f776e61626c653a2063616c6c6572206973206e6f7420746865206f776e6572600082015250565b7f4552433732313a20696e76616c696420746f6b656e2049440000000000000000600082015250565b7f4552433732313a20617070726f76616c20746f2063757272656e74206f776e6560008201527f7200000000000000000000000000000000000000000000000000000000000000602082015250565b7f4552433732313a2063616c6c6572206973206e6f7420746f6b656e206f776e6560008201527f72206e6f7220617070726f766564000000000000000000000000000000000000602082015250565b612d8381612786565b8114612d8e57600080fd5b50565b612d9a81612798565b8114612da557600080fd5b50565b612db1816127a4565b8114612dbc57600080fd5b50565b612dc8816127f0565b8114612dd357600080fd5b5056fea26469706673582212203f6fa1b46640ccc36d2418a27404c874234714c29d8fa00ced20ff6105ef034d64736f6c63430008040033",
  "linkReferences": {},
  "deployedLinkReferences": {}
}